:020000040800F2
:100000000000000041040008154E0108174E0108C9
:10001000194E01081B4E01081D4E0108000000008A
:100020000000000000000000000000001F4E01085A
:10003000C5190008000000006118000885190008B3
:100040008519000885190008851900088519000818
:100050008519000885190008851900088519000808
:1000600085190008851900088519000885190008F8
:1000700085190008851900088519000885190008E8
:1004000010B5054C237833B9044B13B10448AFF34E
:1004100000800123237010BD300200200000000086
:100420006899010808B5034B1BB103490348AFF3B2
:10043000008008BD00000000340200206899010817
:1004400072B6DFF840D01048016841F470010160D5
:100450000E490F4A0F4B914204D053F8040B41F858
:10046000040BF8E74FF000000B490C4A914202D010
:1004700041F8040BFAE714F0A7FC15F0A5FF14F0FF
:1004800077FCFEE70000012088ED00E0000000207E
:100490003002002038E70308300200204C2B0020F7
:1004A00001F0FF01102A2BDB10F0070F08D010F825
:1004B000013B013A8B422DD010F0070F42B3F6D129
:1004C000F0B441EA012141EA014122F007047FF042
:1004D00000070023F0E80256083C85EA010586EA99
:1004E000010685FA47F5A3FA87F586FA47F6A5FAD5
:1004F00087F68EB9EED1F0BC01F0FF0102F00702E1
:1005000032B110F8013B013A83EA010313B1F8D18B
:100510000020704701387047002D06BF354603386C
:10052000073815F0010F07D1013015F4807F02BFA5
:10053000013015F4C03F0130F0BC0138704700BFF6
:1005400010F8012B11F8013B012A28BF9A42F7D07D
:10055000D01A7047034613F8012B002AFBD1181A52
:100560000138704781F0004102E000BF83F0004392
:1005700030B54FEA41044FEA430594EA050F08BF3E
:1005800090EA020F1FBF54EA000C55EA020C7FEA02
:10059000645C7FEA655C00F0E2804FEA5454D4EB7F
:1005A0005555B8BF6D420CDD2C4480EA020281EA49
:1005B000030382EA000083EA010180EA020281EA81
:1005C0000303362D88BF30BD11F0004F4FEA0131D3
:1005D0004FF4801C4CEA113102D0404261EB4101E2
:1005E00013F0004F4FEA03334CEA133302D0524268
:1005F00063EB430394EA050F00F0A780A4F1010424
:10060000D5F1200E0DDB02FA0EFC22FA05F280185D
:1006100041F1000103FA0EF2801843FA05F3594143
:100620000EE0A5F120050EF1200E012A03FA0EFCC2
:1006300028BF4CF0020C43FA05F3C01851EBE371EC
:1006400001F0004507D54FF0000EDCF1000C7EEB09
:1006500000006EEB0101B1F5801F1BD3B1F5001F47
:100660000CD349085FEA30004FEA3C0C04F1010466
:100670004FEA445212F5800F80F09A80BCF1004F8F
:1006800008BF5FEA500C50F1000041EB045141EA11
:10069000050130BD5FEA4C0C404141EB0101013CDA
:1006A00028BFB1F5801FE9D291F0000F04BF0146C9
:1006B0000020B1FA81F308BF2033A3F10B03B3F19B
:1006C00020020CDA0C3208DD02F1140CC2F10C022B
:1006D00001FA0CF021FA02F10CE002F11402D8BF89
:1006E000C2F1200C01FA02F120FA0CFCDCBF41EA55
:1006F0000C019040E41AA2BF01EB0451294330BD24
:100700006FEA04041F3C1CDA0C340EDC04F1140400
:10071000C4F1200220FA04F001FA02F340EA0300D7
:1007200021FA04F345EA030130BDC4F10C04C4F11D
:10073000200220FA02F001FA04F340EA03002946FD
:1007400030BD21FA04F0294630BD94F0000F83F447
:10075000801306BF81F480110134013D4EE77FEA2A
:10076000645C18BF7FEA655C29D094EA050F08BF76
:1007700090EA020F05D054EA000C04BF1946104657
:1007800030BD91EA030F1EBF0021002030BD5FEA9B
:10079000545C05D14000494128BF41F0004130BDC3
:1007A00014F580043CBF01F5801130BD01F0004517
:1007B00045F0FE4141F470014FF0000030BD7FEA8A
:1007C000645C1ABF194610467FEA655C1CBF0B4685
:1007D000024650EA013406BF52EA033591EA030F9C
:1007E00041F4002130BD00BF90F0000F04BF002194
:1007F000704730B54FF4806404F132044FF00005C7
:100800004FF0000150E700BF90F0000F04BF00213F
:10081000704730B54FF4806404F1320410F00045A5
:1008200048BF40424FF000013EE700BF42004FEAA0
:10083000E2014FEA31014FEA02701FBF12F07F431D
:1008400093F07F4F81F06051704732F07F4208BFD4
:10085000704793F07F4F04BF41F40021704730B5DB
:100860004FF4607401F0004521F000411CE700BF27
:1008700050EA010208BF704730B54FF000050AE0AA
:1008800050EA010208BF704730B511F0004502D5AB
:10089000404261EB41014FF4806404F132045FEAAD
:1008A000915C3FF4D8AE4FF003025FEADC0C18BF56
:1008B00003325FEADC0C18BF033202EBDC02C2F148
:1008C000200300FA03FC20FA02F001FA03FE40EADA
:1008D0000E0021FA02F11444BDE600BF70B54FF0DE
:1008E000FF0C4CF4E06C1CEA11541DBF1CEA1355BC
:1008F00094EA0C0F95EA0C0F00F0DEF82C4481EA24
:10090000030621EA4C5123EA4C5350EA013518BF43
:1009100052EA033541F4801143F4801338D0A0FB30
:1009200002CE4FF00005E1FB02E506F00042E0FBDD
:1009300003E54FF00006E1FB03569CF0000F18BFE3
:100940004EF0010EA4F1FF04B6F5007F64F540748B
:1009500004D25FEA4E0E6D4146EB060642EAC6211E
:1009600041EA55514FEAC52040EA5E504FEACE2E8B
:10097000B4F1FD0C88BFBCF5E06F1ED8BEF1004F8E
:1009800008BF5FEA500E50F1000041EB045170BD0A
:1009900006F0004646EA010140EA020081EA03014E
:1009A000B4EB5C04C2BFD4EB0C0541EA045170BD4A
:1009B00041F480114FF0000E013C00F3AB8014F1C4
:1009C000360FDEBF002001F0004170BDC4F100040D
:1009D000203C35DA0C341BDC04F11404C4F120058E
:1009E00000FA05F320FA04F001FA05F240EA0200E9
:1009F00001F0004221F0004110EBD37021FA04F61F
:100A000042EB06015EEA430E08BF20EAD37070BDD8
:100A1000C4F10C04C4F1200500FA04F320FA05F037
:100A200001FA04F240EA020001F0004110EBD37039
:100A300041F100015EEA430E08BF20EAD37070BDA9
:100A4000C4F1200500FA05F24EEA020E20FA04F382
:100A500001FA05F243EA020321FA04F001F0004131
:100A600021FA04F220EA020000EBD3705EEA430EA2
:100A700008BF20EAD37070BD94F0000F0FD101F0D1
:100A80000046400041EB010111F4801F08BF013C0A
:100A9000F7D041EA060195F0000F18BF704703F048
:100AA0000046520043EB030313F4801F08BF013DCF
:100AB000F7D043EA0603704794EA0C0F0CEA13558B
:100AC00018BF95EA0C0F0CD050EA410618BF52EA45
:100AD0004306D1D181EA030101F000414FF000004B
:100AE00070BD50EA410606BF1046194652EA430659
:100AF00019D094EA0C0F02D150EA013613D195EACD
:100B00000C0F05D152EA03361CBF104619460AD114
:100B100081EA030101F0004141F0FE4141F470011E
:100B20004FF0000070BD41F0FE4141F4780170BD0E
:100B300070B54FF0FF0C4CF4E06C1CEA11541DBF73
:100B40001CEA135594EA0C0F95EA0C0F00F0A7F875
:100B5000A4EB050481EA030E52EA03354FEA0131A2
:100B600000F088804FEA03334FF0805545EA1313B5
:100B700043EA12634FEA022245EA111545EA10657D
:100B80004FEA00260EF000419D4208BF964244F114
:100B9000FD0404F5407402D25B084FEA3202B61A33
:100BA00065EB03055B084FEA32024FF480104FF407
:100BB000002CB6EB020E75EB030E22BFB61A75467B
:100BC00040EA0C005B084FEA3202B6EB020E75EB0E
:100BD000030E22BFB61A754640EA5C005B084FEA76
:100BE0003202B6EB020E75EB030E22BFB61A754643
:100BF00040EA9C005B084FEA3202B6EB020E75EB4E
:100C0000030E22BFB61A754640EADC0055EA060E0E
:100C100018D04FEA051545EA16754FEA06164FEA51
:100C2000C30343EA52734FEAC2025FEA1C1CC0D1FD
:100C300011F4801F0BD141EA00014FF000004FF08A
:100C4000004CB6E711F4801F04BF01430020B4F14B
:100C5000FD0C88BFBCF5E06F3FF6AFAEB5EB030C03
:100C600004BFB6EB020C5FEA500C50F1000041EB00
:100C7000045170BD0EF0004E4EEA113114EB5C04CD
:100C8000C2BFD4EB0C0541EA045170BD41F48011A0
:100C90004FF0000E013C90E645EA060E8DE60CEAA8
:100CA000135594EA0C0F08BF95EA0C0F3FF43BAFC5
:100CB00094EA0C0F0AD150EA01347FF434AF95EA7C
:100CC0000C0F7FF425AF104619462CE795EA0C0F60
:100CD00006D152EA03353FF4FDAE1046194622E72D
:100CE00050EA410618BF52EA43067FF4C5AE50EA07
:100CF00041047FF40DAF52EA43057FF4EBAE12E7F7
:100D00004FF0FF3C06E000BF4FF0010C02E000BFD7
:100D10004FF0010C4DF804CD4FEA410C7FEA6C5CBA
:100D20004FEA430C18BF7FEA6C5C1BD001B050EA5D
:100D3000410C0CBF52EA430C91EA030F02BF90EA48
:100D4000020F0020704710F1000F91EA030F58BF07
:100D5000994208BF90422CBFD8176FEAE37040F069
:100D6000010070474FEA410C7FEA6C5C02D150EA07
:100D7000013C07D14FEA430C7FEA6C5CD6D152EAC2
:100D8000033CD3D05DF8040B704700BF8446104687
:100D900062468C461946634600E000BF01B5FFF786
:100DA000B7FF002848BF10F1000F01BD4DF808ED56
:100DB000FFF7F4FF0CBF012000205DF808FB00BF27
:100DC0004DF808EDFFF7EAFF34BF012000205DF881
:100DD00008FB00BF4DF808EDFFF7E0FF94BF0120CE
:100DE00000205DF808FB00BF4DF808EDFFF7CEFFCF
:100DF00094BF012000205DF808FB00BF4DF808ED0E
:100E0000FFF7C4FF34BF012000205DF808FB00BFDE
:100E10004FEA410C7FEA6C5C02D150EA013C0AD1F6
:100E20004FEA430C7FEA6C5C02D152EA033C02D1E8
:100E30004FF0000070474FF0010070474FEA410249
:100E400012F5001215D211D56FF47873B3EB62521C
:100E500012D94FEAC12343F0004343EA505311F043
:100E6000004F23FA02F018BF404270474FF00000D5
:100E7000704750EA013005D111F0004008BF6FF013
:100E8000004070474FF00000704700BF4A0011D289
:100E900012F5001211D20DD56FF47873B3EB6252D4
:100EA0000ED44FEAC12343F0004343EA505323FAE0
:100EB00002F070474FF00000704750EA013002D155
:100EC0004FF0FF3070474FF0000070474FEA41028B
:100ED000B2F1E04324BFB3F5001CDCF1FE5C0DD998
:100EE00001F0004C4FEAC0024CEA5070B2F1004FE2
:100EF00040EB830008BF20F00100704711F0804FE5
:100F000021D113F13872BCBF01F00040704741F4A9
:100F100080114FEA5252C2F11802C2F1200C10FAAD
:100F20000CF320FA02F018BF40F001004FEAC12391
:100F30004FEAD32303FA0CFC40EA0C0023FA02F335
:100F40004FEA4303CCE77FEA625307D150EA01330B
:100F50001EBF4FF0FE4040F44000704701F00040DB
:100F600040F0FE4040F40000704700BF7BB972B90A
:100F70000029BEBF00204FF0004106E008BF002856
:100F80001CBF6FF000414FF0FF3000F0EFB9ADF142
:100F9000080C6DE904CE002909DB002B1ADB00F0F8
:100FA00083F8DDF804E0DDE9022304B07047404235
:100FB00061EB4101002B1BDB00F076F8DDF804E06B
:100FC000DDE9022304B0404261EB4101524263EB90
:100FD00043037047524263EB430300F065F8DDF8CA
:100FE00004E0DDE9022304B0404261EB41017047B7
:100FF000524263EB430300F057F8DDF804E0DDE90B
:10100000022304B0524263EB4303704753B94AB919
:10101000002908BF00281CBF4FF0FF314FF0FF3000
:1010200000F0A4B9ADF1080C6DE904CE00F03CF875
:10103000DDF804E0DDE9022304B0704738B5002292
:10104000002304460D46FFF7BBFE28B9204629467B
:10105000BDE8384000F00AB8204605F1004100F034
:1010600005F8404261EB410138BD00BFD0B50C4BE3
:10107000002206460F46FFF731FCFFF707FF044644
:10108000FFF7B2FB074B0022FFF728FC02460B4696
:1010900030463946FFF76AFAFFF7F8FE2146D0BD21
:1010A0000000F03D0000F0412DE9F047089D0446A6
:1010B0008C46002B40F083808A42174647D9B2FA0B
:1010C00082F242B1C2F1200024FA00F09140974030
:1010D00040EA010C94404FEA1748230CBCFBF8F699
:1010E0001FFA87FE08FB16C143EA014306FB0EF117
:1010F000994209D9FB1806F1FF3080F01981994215
:1011000040F21681023E3B445B1AA4B2B3FBF8F0F6
:1011100008FB103344EA034400FB0EFEA64509D940
:101120003C1900F1FF3380F00581A64540F20281B1
:1011300002383C4440EA0640A4EB0E0400261DB1F0
:10114000D4400023C5E900433146BDE8F08702B929
:10115000FFDEB2FA82F2002A50D1CB1B4FEA174EC3
:101160001FFA87F80126B3FBFEFC210C0EFB1C3393
:1011700041EA034108FB0CF38B4207D979180CF1C3
:10118000FF3002D28B4200F2E9808446C91AA3B232
:10119000B1FBFEF00EFB101143EA014408FB00F81E
:1011A000A04507D93C1900F1FF3302D2A04500F257
:1011B000D9801846A4EB080440EA0C40BFE78B42F4
:1011C00009D9002D00F0B1800026C5E900013046A4
:1011D0003146BDE8F087B3FA83F6002E4AD18B4240
:1011E00002D3824200F2B880841A61EB030101202D
:1011F0008C46002DA8D0C5E9004CA5E7C2F120031C
:1012000020FA03F6974001FA02F04FEA174ED94050
:101210003043030CB1FBFEF61FFA87F80EFB1611E4
:1012200043EA014306FB08F1994204FA02F409D9A2
:10123000FB1806F1FF3C80F08D80994240F28A80D5
:10124000023E3B445B1A81B2B3FBFEF00EFB10334F
:1012500041EA034100FB08F38B4207D9791800F1FA
:10126000FF3C73D28B4271D902383944CB1A40EA21
:10127000064678E7C6F1200C03FA06F422FA0CF3CE
:101280001C4320FA0CF701FA06F34FEA144E21FA38
:101290000CF11F433B0CB1FBFEF91FFA84F80EFB67
:1012A000191143EA014109FB08FA8A4502FA06F2DC
:1012B00000FA06F308D9611809F1FF3048D28A45CF
:1012C00046D9A9F102092144A1EB0A01BFB2B1FB41
:1012D000FEF00EFB101147EA014700FB08F8B84585
:1012E00007D9E71900F1FF312ED2B8452CD90238C1
:1012F000274440EA0940A7EB0807A0FB02894F45B5
:10130000C64649461AD317D05DB1B3EB0E0267EB60
:10131000010707FA0CFCF2404CEA0202F740C5E96B
:10132000002700263146BDE8F0872E4628460BE709
:101330000646E9E61846FDE64345E5D2B8EB020E5F
:1013400069EB04010138DFE70846D2E760468DE724
:101350008146B9E7664675E730464AE7ACF1020CCC
:10136000394413E702383C4424E700BF704700BF0C
:101370002DE9F0410026D0F80080066005460F46B2
:101380001446FAB11046FFF7E5F823462044984288
:1013900007D800221346A04209D82B601846BDE8A2
:1013A000F0811A78202A08BF1E700133EFE72178F8
:1013B00029B122B94345BCBF47F82340013314F893
:1013C000012BE8E71346E9E770B5054678B1FFF76A
:1013D000C1F80646013000F081F9044628B13246D2
:1013E000294616F049F80023A355204670BD04464F
:1013F000FBE773B50D460646B0B100F0B9F915F03C
:10140000F7FE0024AC4202DB002002B070BD15F0F4
:1014100013FF2A1B042A019028BF0422301901A9B6
:1014200015F007F80434EDE74FF0FF30EDE730B189
:10143000C0E90012009AC0E90223002070474FF073
:10144000FF307047F8B50F460446002844D0002905
:1014500042D0002A40D0D0E90150A8423FD0002D10
:101460003DDD2E1A9642A8BF1646E268104485421A
:101470000FDA002E0BDD90FBF5F2236805FB12005E
:101480001844324614F0D5FFA3683344A3603046B5
:10149000F8BD821995421DDA23682D1A2A46184490
:1014A00014F0C7FFA3682B442F44A360751B002DC5
:1014B000EDDDD4E902306268184490FBF2F302FBE0
:1014C000130023682A461844394614F0B2FFA36873
:1014D0002B44DBE73546EAE74FF0FF36D7E7002637
:1014E000D5E7F8B50B460446002839D0002937D097
:1014F000002A35D085687DB34668002E33DD9542DD
:10150000A8BF1546C168721B914227DB761A002ED0
:1015100024DD006832460144184614F08AFFE26870
:1015200003466068324492FBF0F100FB1122E26056
:10153000A268921BA260AF1B3344002F0CDD206811
:10154000E1683A460144184614F073FFE368A26864
:101550003B44D21BE360A2602846F8BD2F46ECE76F
:101560004FF0FF35F8E70025F6E708B180687047CF
:101570004FF0FF30704720B10023C0E90233184616
:1015800070474FF0FF307047014B1878704700BF2D
:101590004C02002005289ABF024B53F82000024855
:1015A000704700BF109B0108E49A0108044A1368C1
:1015B00013B91060184670474FF0FF30704700BFF6
:1015C0005002002010B4074C24683CB164682CB170
:1015D00024681CB1A4465DF8044B604700205DF808
:1015E000044B704750020020054B1B6823B15B6819
:1015F00013B15B6803B118474FF0FF30704700BF6D
:1016000050020020044B1B6823B15B6813B1DB68F8
:1016100003B11847704700BF50020020044B1B68FD
:1016200023B15B6813B11B6903B1184700207047F1
:1016300050020020044B1B6823B15B6813B15B6947
:1016400003B118470020704750020020044B1B686C
:1016500023B15B6813B19B6903B118470020704741
:1016600050020020044B1B6823B15B6813B1DB6997
:1016700003B118470020704750020020044B1B683C
:1016800023B15B6813B11B6A03B118470020704790
:1016900050020020044B1B6823B15B6813B15B6AE6
:1016A00003B118470020704750020020044B1B680C
:1016B00023B15B6813B19B6A03B1184700207047E0
:1016C00050020020044B1B6823B15B6813B1DB6A36
:1016D00003B118470020704750020020044B1B68DC
:1016E00023B15B6813B11B6C03B11847002070472E
:1016F0005002002038B1044B1B6823B15B6813B162
:101700005B6C03B1184770475002002013B5094BBA
:1017100001901C6854B1646844B1246C34B1A04792
:10172000044618B1019A002114F0ABFE204602B025
:1017300010BD00BF50020020044B1B6823B15B6842
:1017400013B19B6C03B11847002070475002002072
:1017500013B501FB00F21046019200F0EBFA0446CB
:1017600018B1019A002114F08CFE204602B010BD81
:10177000054B1B6823B15B6813B1DB6C03B11847E1
:1017800000200021704700BF50020020054B1B685D
:1017900023B15B6813B11B6D03B118474FF0FF30E5
:1017A000704700BF5002002010B4084C24683CB1C0
:1017B00064682CB1646D1CB1A4465DF8044B6047AD
:1017C0004FF0FF305DF8044B704700BF500200201F
:1017D00008B500F0A7FA08BD72B6154815490268A9
:1017E00041EA0201016014484FF001010160134811
:1017F0004168016001688A884FF0100342EA0302E1
:101800008A80D1F800C04FF002030CF1240C0CF1D7
:10181000040CDCF80000DCF814E0DCF818200CF113
:10182000200C8CF3098862B683F3148810470000FB
:1018300020ED00E00000FFFFEC260020E426002061
:10184000EFF3108072B6704780F310887047000085
:1018500002484FF0805101607047000004ED00E045
:10186000EFF3108C72B6184A126822B12DE90050BD
:101870009047BDE80050EFF309801EF0100F01D132
:1018800020ED108B40F804ED20E9F01F0F4D4FF0D4
:1018900010082E683060B78827EA0807B7806868A4
:1018A0002860878847EA080787800168B1E8F01F49
:1018B00051F804EB1EF0100F01D1B1EC108B81F345
:1018C00009888CF3108870475C020020E426002011
:1018D00037B5184D2B68B3F57A7F27D30024164B04
:1018E0000094224607214FF0FF3000F081F84FF4BA
:1018F0007A722B68B3FBF2F3104A1360104A013B73
:1019000000200021B3F1807FC2E9000110D20D4A0E
:1019100053600D4BF02183F823100723946013606C
:101920000A4B01221A60204603B030BD0848FBE78D
:101930000848F9E75C000020F11D0008A8260020F7
:10194000A026002010E000E000ED00E0580200209A
:101950000004000202040002EFF30580704700005B
:1019600008B5054815F058FBEFF305820349044814
:1019700015F052FBFEE700BF289B01083D9B0108C4
:101980002F9B010810B50D4CFFF75AFF2368013358
:101990002360FFF759FFEFF30583094A0F3B52F825
:1019A00023304BB19847FFF74BFF2368013B23607F
:1019B000BDE81040FFF748BFFFF7D2FF54020020F8
:1019C000D422002008B5FFF7CBFF0000054B064AE4
:1019D0009A60D968054A21F4E0610904090C0A43B8
:1019E000DA60704700ED00E0000000080007FA052B
:1019F00070B504460D461E460BB3A0F1F003F2335A
:101A00001FD907291FD8FFF71BFF621C114B43F892
:101A1000226062B22D01002AE4B2EDB215DB01238F
:101A200004F01F0403FA04F451090B4B43F821405E
:101A3000134483F80053FFF707FF002070BD0748E9
:101A4000FCE70748FAE70748F8E7074B04F00F04FC
:101A50001D55F0E7D422002000E100E0010900025A
:101A6000000900020509000214ED00E072B6FEE76D
:101A7000FFF7EEBE10B5FFF7E3FE044600F064FF8B
:101A8000094B283858601B689842204608D0074BFD
:101A90001B882BB9FFF7D8FEBDE81040FFF7D8BE72
:101AA000BDE81040FFF7D0BEE4260020E02600206D
:101AB00038B5D0E9022305464FF0CA3118469C18C4
:101AC00014F0DFFC4FF0CC3202604FF005334FF0E2
:101AD000043244E912234FF006314FF0073344E952
:101AE00010134FF008304FF0093344E90E034FF064
:101AF000103C4FF0113344E90CC34FF0000E6FF06F
:101B0000020344E90AE32B6944F8203C4FF0013218
:101B10004FF0023344E907234FF003314FF0123303
:101B200044E90513064B44F80C3C064B44F8083CCA
:101B30004FF0807344F8043C483C2C6038BD00BF33
:101B40006D1A00081527000810B508210446482022
:101B500002F0B9F8E168044B0144E1601868BDE89F
:101B60001040082201F08BBC9826002038B5FFF702
:101B7000F3FE48B9FFF764FE054BD3E90045FFF7D4
:101B800063FE2046294638BD00240025F9E700BF42
:101B9000A0260020084600F0CDB80846114600F007
:101BA000B9B80846114600F0C7B8084600F0C0B8FA
:101BB0000020704792B289B2FFF71ABFFFF7D6BF75
:101BC000024B0146186801F061BC00BF9826002056
:101BD00008B501F0A5F8B0FA80F0400908BD08B5D5
:101BE00001F04CF8B0FA80F0400908BD08B501F0EA
:101BF0006FF8B0FA80F0400908BD000007B592B256
:101C000000920023024689B2044800F0E9FEB0FACF
:101C100080F0400903B05DF804FB00BF519B010850
:101C200008B501F03BF9B0FA80F0400908BD08B5ED
:101C300001F004FAB0FA80F0400908BD08B501F0DF
:101C40007BF9B0FA80F0400908BD08B5134689B2A7
:101C5000024698B201F0E4F8B0FA80F0400908BDFD
:101C600008B501F097FAB0FA80F0400908BD08B550
:101C700001F05CFBB0FA80F0400908BD08B54FF0F8
:101C8000FF3101F0C3FAB0FA80F0400908BD08B591
:101C900001F042FAB0FA80F0400908BD00F0CEBD74
:101CA00008B500F047FBBDE8084000F07FBC08B570
:101CB00030B100F07BFC003818BF0120404208BD65
:101CC0004FF0FF30FBE7F0B589B006460D461746EA
:101CD0000021142203A81C4614F0D3FB0F9B049789
:101CE00002A901A8ADF80C3006960295059400F003
:101CF000F1FB10B9019809B0F0BD0020FBE700002E
:101D0000011E03DD024B186801F0A9BB00207047DB
:101D100098260020024B0A460146186801F0B4BB21
:101D2000982600200148FFF741BC00BF649B0108D2
:101D3000FFF7E0BCFFF7D2BCFFF70ABDFFF7FCBC22
:101D400010B5FFF7C5FD044638B1054815F064F934
:101D5000044815F045FA204610BDFFF73DFDFAE7AF
:101D6000289B0108C49B01081C4B10B510221A6067
:101D700001F054FB044640B1194815F04DF91948DB
:101D8000214615F049F9204610BDFFF71FFE00F06F
:101D90006DFA044630B1124815F03EF9124815F0BC
:101DA0001FFAF0E700F0D2FA01F00EF8044600281E
:101DB000E9D101F08FF904460028E4D100F0E2FDFA
:101DC000044620B1064815F027F90848E7E700F077
:101DD0002DF8BDE8104000F0CBBB00BFDC26002092
:101DE000289B0108D69B0108F09B0108019C010873
:101DF00008B5094B0948D3E900210068013241F1D7
:101E00000001C3E9002100B908BD00F017F8BDE8E2
:101E1000084000F013B900BFA0260020580200209F
:101E2000014BD3E900017047A0260020024B00229D
:101E30001A600A22DA807047B82600200A4B1A6816
:101E40000A4B19880A4B1868904204D01A60DA8845
:101E5000013A0A449A809A888A4203D100221A6081
:101E600000F0B4BC704700BFE4260020A02600208C
:101E7000B8260020D0E9003213605A600023C0E980
:101E800000337047FEE7000010B52B4C2368DB6879
:101E90001B68B3F1CC3F08D0284815F0BDF8236883
:101EA00027481A69596A15F0B7F862681168D3684B
:101EB000994203D992681344994211D91F4815F0E9
:101EC000ABF863681F481A69596A15F0A5F81B48F2
:101ED00015F0A2F863681C48DA68196815F09CF8D8
:101EE0001A4B61681A780C69496A03EB420003EBEC
:101EF00042124480163201F1200051F8044B42F89E
:101F0000044B8142F9D11A7803EB42100132D2B26C
:101F10000A2A0CBF5A781A704FF0000102BF62F013
:101F20007F0219705A700A4B80F835101B6813B184
:101F3000BDE81040184710BDE4260020289B01088A
:101F4000139C01083B9C01085D9C0108F8260020B9
:101F50006002002083885B0737B504460D460FD525
:101F60002830019000F0D2FCA3880198E58043F06E
:101F700004032946A38003B0BDE8304000F0AABCAA
:101F8000C18003B030BD0000F0B51D4CA2882668AA
:101F90004B0911F01F01114408BF03F1FF3301F099
:101FA0001F0206EBC20623F0784343EAC163836352
:101FB0007368B34200F1300706D11B685A68C0E964
:101FC0000C3217605F60F0BD303B9A6B816B22F082
:101FD000784421F07845AC420BD85A6B01F0784137
:101FE0002C1B214396428163A2F13003EDD11B6B80
:101FF000E4E702F07842641B22439A63F7E700BFEC
:10200000D026002010B40C4BD0E90D411B68CA0E3D
:1020100003EBC2039C4209D0A26821F0784122F070
:1020200078430B4402F078421343A3605DF8044BFD
:102030003030FFF71FBF00BFD0260020294AF8B577
:102040009588013505F01F031568938005EBC305DE
:102050006C68AC4244D0303C002604F13000A84209
:1020600006D0A36BA18833F0784707D0013BA36368
:10207000002E35D0BDE8F840FFF7FCBCFFF7FAFEB4
:102080000B0718D5A38823F00803A38004F12800C8
:10209000FFF7F0FEC4E906778B0709D4A388E1882F
:1020A00043F00403A38004F1280000F013FC012690
:1020B0006C68303CD1E7480504D5A38823F48063DD
:1020C000A380E9E78A0407D504F12800FFF7D2FED0
:1020D000A38823F40053F3E7A38823F02003EFE75A
:1020E000F8BD00BFD0260020C10615D4420715D484
:1020F000830615D4010706D510F0400F0B4B0C4892
:1021000008BF1846704782070CD483040CD510F022
:10211000400F084B0848F3E70848704708487047E5
:10212000084870470848704708487047CC9C010829
:102130009F9C0108C79C01089A9C0108AB9C010860
:10214000B39C0108B99C0108BF9C01088F9C010841
:1021500054235843104B196810B50C18E3681A68DB
:10216000B2F1CC3F0DD108581A1D904203D8A06897
:102170000344981A10BD1168B1F1CA3FF7D1043277
:10218000F3E7064814F048FF616A054814F044FF7D
:102190004FF0FF30EEE700BFD8260020289B010853
:1021A000D19C01082DE9F04F2848DFF8B8A0DFF8EE
:1021B000B8B08BB014F030FF254814F02DFF25483F
:1021C00014F02AFF224814F027FF0025DAF8003027
:1021D000AB4203D800200BB0BDE8F08F1E4B542655
:1021E000D3F800906E4309EB0604A088C30727D4F8
:1021F000616AE38809910893FFF776FFD4F81080AD
:10220000A268079207464046FFF7A2FFA36C05931A
:10221000E368049359F80660079A089B0999CDE989
:102220000206CDE900725846424614F0F5FEA36955
:1022300043B1D988094814F0EFFE094814F0D0FFE3
:102240000135C3E74FF6FF71F4E700BFF29C0108C8
:10225000F09E0108679D0108D8260020129E010803
:10226000F19E0108DC260020DA9D0108284B73B599
:102270001968284C284D2068542201FB022211467F
:10228000019201F0ECF8286000283ED0019A00216C
:1022900014F0F7F8214B224AC3E90033214BC2E97D
:1022A0000022C3E900332B6800212833012610687F
:1022B00043F8181C456823F8246C01311029C3E940
:1022C00000052B60436003F15403F0D1164B002549
:1022D000C3E9005500F0E8FA20684FF4807101F07E
:1022E000BEF8044688B14FF48072294614F0C9F84C
:1022F0000E4B1C609D8004F58073C4E900440834D3
:102300009C42FAD1002002B070BD0948FBE700BF33
:10231000DC26002098260020D82600205028002007
:10232000F0260020C8260020E4260020D026002029
:1023300000020003034B1B680BB118697047024889
:10234000704700BFE42600200702000208B5084BD2
:102350004FF4AB721846002114F093F8054B0A2293
:102360004270054A1A60054B00221A6008BD00BF82
:10237000F82600205C020020891E00086002002070
:102380002DE9F0470D46804600287ED000297ED0FA
:102390000B69002B7DD00B68002B7CD08A881F2A0C
:1023A0007BD802D13F4A934277D1EB6813B94FF4FF
:1023B0003473EB60E868082101F085FCB0F5987F84
:1023C000E8606CD3FFF73CFADFF80091364EDFF897
:1023D00000A10746D9F804404C451DD17468B442A9
:1023E00051D02046FFF746FD3846FFF72DFA284624
:1023F00054F8187CA4F12809FFF7A6FBF0B9FFF701
:102400001FFA7368C4E900631C607460274E0746B6
:102410003846FFF719FA33E02046FFF72BFD7368C3
:1024200054F81C1CDAF80000C4E900631C607460F6
:1024300001F02CF8002344F81C3CCBE7AB6844F8CF
:10244000083CEB6844F8203C022324F8243CAB8889
:1024500024F8223C2B6844F8143C4FF0FF3300264C
:1024600063612B6944F81C0C44E90466266244F855
:10247000043CA66229464846FFF71AFBC8F80070DC
:102480003046BDE8F0870A4EC2E70A4EF8E70A4E2A
:10249000F6E70A4EF4E70A4EF2E70A4EF0E70A4E74
:1024A000EEE700BF851E0008F026002000020003B2
:1024B00011020002070200020102000205020002EE
:1024C000040200020302000206020002C8260020E5
:1024D0009826002070B5064686B000293BD00C46F1
:1024E0000FCC6D460FC594E8030085E803006946EC
:1024F0003046FFF745FF054630BB184B34681B6874
:10250000542202FB0434FFF79BF9A388E18823F0EF
:10251000020343F00403A380064604F1280000F000
:10252000D9F900F011FA0E4A0E4B1268283858609B
:102530006AB10D4A128852B91B68984207D03046DA
:10254000FFF782F9FFF794FA284606B070BD3046CF
:10255000FFF77AF9F8E7054DF6E700BFD826002027
:10256000EC260020E4260020E026002001020002E4
:102570007FB51422002101A813F083FF084B0093BC
:102580004FF400730393074B049369461F230648D7
:10259000ADF80430FFF79EFF07B05DF804FB00BF05
:1025A000851E0008199E0108C02600202DE9F84F5D
:1025B0004B4B1B688342064600F08B80494B1B68DF
:1025C000834200F08880484B1A6882429B4640F262
:1025D0008480FFF735F98046FFF7ACFE864202BFE4
:1025E000424B00221A80424B1A68542404FB0624F2
:1025F0009A46A58815F0010205D04046FFF724F958
:102600003C48BDE8F88FE90603D5384B198801B17D
:102610001A806B0704F1280740D5384600F076F998
:10262000A38823F00403A38015F0600F02D0204696
:10263000FFF7E8FCA38823F0020343F00103A38023
:102640004FF000094FF0FF33E363C4F8489000F007
:102650007BF9A2882849283812F01005486025D057
:10266000264B1B685868C4E90A3007605F60DAF8D7
:102670000000DBF80030542505FB03030B609A8053
:10268000E268DA60626A5A621E6101234046A380F2
:10269000FFF7DAF8FFF7ECF94846B2E742F2080331
:1026A0001D42C1D03846FFF7E5FBBDE70123A380FB
:1026B000134BE1685A68C4E90A3217605F60114B36
:1026C000186800F0E3FE4046E560FFF7BDF82846D5
:1026D00097E70D4895E70D4893E70D4891E700BF50
:1026E000C0260020C4260020DC260020E026002092
:1026F000D82600200A020002E4260020C826002076
:10270000F026002098260020140200022102000278
:1027100007020002064B10B51C68542303FB00445B
:102720006369206A98472069BDE81040FFF73EBF03
:10273000D82600202DE9F843124B1D6805F1280723
:10274000804638468946164600F0E0F8AC88D8F84E
:10275000002024F00404516844EA09039BB2C5E94F
:102760000A21AB800F605760721C08D043F0400311
:10277000AB8031462846BDE8F843FFF705BCBDE80D
:10278000F88300BFE426002038B500F12805044690
:102790002846FFF76FFBA38823EA0101A1804906C1
:1027A00006D52046FFF72EFCA38823F04003A38024
:1027B000A3889A0708D443F00403E188A38028463D
:1027C000BDE8384000F086B838BD000038B5174D78
:1027D000174A2B6812681969914225D2988810F01F
:1027E00004001BD0FFF72CF82B680446D88800F0B3
:1027F000BBF8012813D928682830FFF73BFB28686D
:102800008388C18843F004038380283000F062F895
:102810002046FFF719F8FFF72DF9002038BD2046B4
:10282000FFF712F80348F9E70348F7E7E42600202A
:10283000DC2600201002000207020002F8B505465F
:10284000FFF78AF8044618BB134B1B8813BB1DB94E
:10285000BDE8F840FFF7BABFFEF7F2FF0F4F06469C
:102860003868283000F052F83868838823F0040371
:1028700083802946FFF788FB3A68938843F020035A
:1028800093803046FEF7E0FFFFF7F4F82046F8BDEE
:10289000034CFBE7034CF9E7E0260020E426002088
:1028A0000D0200030E02000208B5084B4FF48071C0
:1028B000186800F0D4FD064B186030B100F5807345
:1028C000C0E9000008309842FAD108BD98260020DF
:1028D000582800200B4B1A6802EBC10330B55C6826
:1028E000A34206D1084C4FF000432568CB402B4350
:1028F000236052F831305A68C0E9003210605860E5
:1029000030BD00BF5828002064020020D0E900320A
:1029100013605A600023C0E90033094B30F8222CC1
:102920001B6803EBC20359688B4208D105494FF07D
:10293000004323FA02F20B6823EA02030B6070479C
:102940005828002064020020054B186830B1054B60
:102950001B68B0FA80F003EBC0004068704700BF0E
:102960006402002058280020054B1B6803EBC003BD
:1029700000205A68934200D1704752680130F9E74D
:1029800058280020124B10B51868124C4FF4DC7117
:1029900000F065FD2060C8B14FF4DC72002113F037
:1029A00070FD0D4A2368C2E900221C330021106823
:1029B00023F8121C446801310A29C3E9000423608A
:1029C000436003F12C03F2D1002010BD0348FCE763
:1029D00098260020642800205C28002001060002C0
:1029E0002DE9F8438846BDF820301746002A4AD022
:1029F0004FF6FB72934248D8002948D0002B46D0AE
:102A00000433DFF8AC909EB2D9F80000714300F0B7
:102A100026FD054600283CD0FEF712FF1E4B5C68E1
:102A20009C4209D1FEF710FFD9F80000294600F0BA
:102A30002DFD1A48BDE8F883D4E9003213605A60CE
:102A4000012324F8183CA4F1080344E9023344F8B4
:102A50001C5C04F108030025C4E90233C4E9004406
:102A600024F8168C24F8146C24F80C5C24F80A8CD6
:102A700024F8105C24F80E5CFEF7E6FE34F8123CF5
:102A80003B602846D6E70648D4E70648D2E7064822
:102A9000D0E70648CEE700BF5C280020040600020D
:102AA0000C060002030600020D06000202060002E8
:102AB000982600202DE9F74F83468A46984691468E
:102AC000FEF7BEFE614B07461B682C2000FB0BFB8C
:102AD00003EB0B04A188002900F0B2802189D8F80B
:102AE00000000C9A1AF00106A1F1040103D1814201
:102AF00004D9574E0DE08142C0F0A48004EB46009B
:102B0000018A61BB4AB9534C534B002E0CBF264679
:102B10001E463846FEF798FE69E050490193098841
:102B2000002940F091804E49B01C04EBC0000D68B4
:102B300004304FF40051FFF7FDFD3846FEF784FEE8
:102B4000FEF798FFFEF77CFEAA88019B12F0400F6B
:102B5000074606D022F04002424EAA80D9E701394A
:102B600001820AF00301012917D003291CD019BBE7
:102B7000A589E0886A1C824208BF0A46A281228990
:102B800053F80B1055431AF0040F01EB050336D030
:102B90008EBB4B59C9F8003014E0A58905B9E5880A
:102BA000013DADB2A581EAE7E589E1886A1C8A4268
:102BB00008BF0022E281E2E72B4814F02DFA2B48EF
:102BC00014F00EFB86F00106B31C04EBC30213469F
:102BD0009068043398422CD04FF400512838FFF706
:102BE000D3FD3846FEF730FEFEF744FF00263046A0
:102BF00003B0BDE8F08FD9F800304B51E2E756B989
:102C00001A44194652F8045C48462A4613F011FC4F
:102C1000C8F80050D6E7D8F800204946184613F007
:102C200008FC2189D8F8002003460B4443F8042C03
:102C3000C8E704EB46040026238A0133238268E7B1
:102C40000B4E66E70B4E64E70B4E62E764280020EC
:102C50001F0600021D06000216060002E0260020E4
:102C6000E426002007060002289B0108259E010893
:102C70000A06000215060002060600020928F7B53A
:102C800005460E4614461F4613D8A1B19AB11368E3
:102C90009BB147B900972346324600212846FFF7EB
:102CA00009FF03B0F0BDFEF757FE0028F2D004483C
:102CB000F7E70448F5E70448F3E70448F1E700BF05
:102CC000180600020E0600020F060002100600029F
:102CD0007FB5092804460D4603921E4611D891B1CE
:102CE0009AB143B9009603AB2A4603212046FFF769
:102CF000E1FE04B070BDFEF72FFE0028F2D00448BC
:102D0000F7E70448F5E70448F3E70448F1E700BFB4
:102D1000090600020E060002120600021306000257
:102D20000928F7B504463ED8FEF78AFD1F4B2C2232
:102D30001D686243AB1801469C884CB39E6903F141
:102D40001404A6422BD11E6A03F11C04B44226D1FE
:102D50009F6A03F12406B74221D11F8A5E8A3E444E
:102D6000DF88BE421DD10026A958AE50104A9E8071
:102D700055680191C3E907252C605460FEF764FD96
:102D80000C4B0199186803B0BDE8F04000F07EBB21
:102D9000094C0846FEF758FD204603B0F0BD074C2D
:102DA000F7E7074CF5E7074CF6E700BF642800207B
:102DB0005C280020982600200A060002080600026F
:102DC0000B0600020506000238B5114B114C1868BD
:102DD0004FF4A071C4E9004400F041FB0E4B1860B1
:102DE00098B1002308301D46226820F8023C516843
:102DF00020F8085C0133142BC0E900210860506002
:102E000000F11000F0D1002038BD0448FCE700BFFD
:102E10009826002068280020702800200007000263
:102E200073B506460D46144652B3884226D8FEF7BF
:102E300007FD144A536893420AD1FEF705FD124C70
:102E40001249134800230093224600F045FF12E088
:102E5000D3E900210A6051600122C3E9003323F85D
:102E6000066C23F8082C23F8045C33F8023C23603A
:102E7000FEF7EAFC0024204602B070BD054CDFE7F7
:102E8000054CF8E76828002003070002F8C3B2A148
:102E9000419E0108080700020207000213282DE9DD
:102EA000F34728D81F4B1F684FEA001807EB0014A0
:102EB000FEF7C6FC37F808300646D3B104F108091E
:102EC0004FF0000AE5684D451ED1174B5A68C4E91A
:102ED00002320024C2F800903046C3F8049027F86C
:102EE0000840FEF7B1FCFEF7C5FD204602B0BDE884
:102EF000F087FEF7A9FC00230C4A0D490D4800930A
:102F000000F0EAFE0948F1E745F810AC0821A5F108
:102F10002800FFF739FC35F8243C43F0400325F83E
:102F2000243CCFE770280020682800200107000219
:102F3000F8C3B2A1419E010813282DE9F341884648
:102F40000BD900230093304A304931482E4C00F011
:102F5000C3FE204602B0BDE8F0812E4B1C6807017D
:102F600004EB0015FEF76CFCE45B064624B9FEF7A3
:102F70006BFC00942346E6E76B882BB1013B6B802A
:102F8000FEF762FC0024E4E7B8F1000F39D0FEF749
:102F9000E3FC044688B12048204C14F03DF820485A
:102FA00014F01EF93046FEF74FFC0023174900933A
:102FB0002246174800F090FECBE71A4B1B883BB126
:102FC0001548194C14F028F8184814F009F9E9E7E5
:102FD000174B1F68082168184246BD61FFF7AAFB1E
:102FE0003046FEF731FCFEF745FDBB885B06B0D5E9
:102FF000FEF726FCBB880F4C23F040030646BB803F
:10300000D0E70D4CCEE700BF01070002F8C3B2A124
:10301000419E010870280020289B01080507000236
:10302000549E0108E026002006070002749E010855
:10303000E426002007070002040700021328F7B562
:1030400012D81F4B1D68070105EB0014FEF7F8FBB3
:10305000ED5B064655B9FEF7F7FB1A4A1A491B48BD
:1030600000952B4600F038FE16480DE06388A288D4
:103070009A420BD1FEF7E8FB0023154A1249134888
:10308000009300F029FE124803B0F0BDE26804F19D
:1030900008018A424FF000050DD0A2F1280042F845
:1030A000105C0821FFF770FB3046FEF7CDFBFEF702
:1030B000E1FC2846E8E701336380FEF7C5FBF8E74B
:1030C0007028002001070002F8C3B2A1419E010848
:1030D000080700020D490A6870B5A2B90C4B0B60D5
:1030E0000C49C1E90011164618465A600C6800F8F0
:1030F000086B01326568142AC3E90245286003F1B0
:1031000018036060F0D1002070BD00BF680200208D
:103110006C02002074280020184B1B6837B5054648
:103120000BB9FFF7D7FF35B3FEF78AFB144A536894
:1031300093420BD1FEF788FB0023124A1249134831
:10314000009300F0C9FD0F4803B030BDD3E9002162
:1031500000240A6051600122C3E9013423F8064CBF
:1031600003F8082C9C811B6053F8043C2B60FEF78D
:103170006BFB2046E8E70648E6E700BF6802002050
:1031800074280020031D0002F8C3B2A1419E01086B
:10319000021D00021328F7B50BD8164B18251F681F
:1031A0004543FEF74DFB7A5D7E1903461AB9FEF7DB
:1031B0004BFB114C0AE0F16806F108028A4201D18A
:1031C00074885CB11846FEF73FFB0C4C0C490D4867
:1031D00000230093224600F07FFD08E00A4B596867
:1031E000C6E902310A605A607C55FEF72DFB204685
:1031F00003B0F0BD68020020011D0002091D00029D
:10320000F8C3B2A1419E01087428002013282DE9BB
:10321000F34188460BD900230093384A384939488E
:10322000364C00F059FD204602B0BDE8F08118236D
:1032300003FB00F4344B1D68FEF702FB2F192C5DD5
:10324000064624B9FEF700FB00942346E5E7FEF7A7
:1032500083FB044620B13046FEF7F6FA2B4CE2E73A
:103260002B4B1D687B8843B901237B80EB883D6134
:10327000BB823046FEF7E8FAD5E73869A84202D1AA
:1032800001337B80F5E7B8F1000F04D13046FEF73B
:10329000DBFA204CC7E7204B1B888BB11F48204C22
:1032A00013F0BAFE1F4813F09BFF3046FEF7CCFA2E
:1032B0000023134900932246124800F00DFDB2E7A7
:1032C000E988C388EF618B4201D9FEF743FE0821EC
:1032D00078184246FFF72EFA3046FEF7B5FAFEF7A9
:1032E000C9FBAB885B069ED5FEF7AAFAAB880E4CED
:1032F00023F04003AB80FEF7A7FAD9E7011D0002D7
:10330000F8C3B2A1419E010868020020051D000219
:10331000E4260020041D0002E0260020289B01086E
:10332000061D0002959E0108071D0002284B2DE98D
:10333000F3411826D3F8008007464643FEF780FA8B
:10334000132F08EB0604054602D818F806306BB9AF
:103350002846FEF779FA00231E4A1F491F480093AA
:1033600000F0BAFC1B4802B0BDE8F0811C4B1968A4
:103370006388002BECD022698A42E9D1013B9BB2E1
:10338000638013B1FEF760FA1EE0A18AD3888B42F6
:1033900002D01046FEF7DEFDE36804F10802934216
:1033A00014D00122A3F12800628033F8222C20617E
:1033B000A282002443F80C4C0821FFF7E5F92846C7
:1033C000FEF742FAFEF756FB0020CCE72846D9E785
:1033D00068020020011D0002F8C3B2A1419E01084D
:1033E000E426002038B530F0030515D000F00300C6
:1033F000091A21F00304B4F50C7F0DD9284600F01A
:103400000AF9A4F50C7205F50C71284600F014F9C0
:10341000003818BF012038BD0120FCE738B50A4C40
:10342000D4E90051491B2846FFF7DCFF20B9074BC0
:103430001D601D46E06800B938BD54F8081F421AE7
:10344000286800F0F9F8F5E7E41F02089826002044
:1034500008B500F001FAB0FA80F0400908BD38B5AF
:1034600004460D4649B148B100F0C5FB30B92946C4
:103470002046BDE8384000F0EBB9084638BD134699
:103480000A46194600F020B900F041BA38B50D4699
:10349000044660B159B100F0E8FB012803D0294689
:1034A0002046FFF7D5FF013818BF012038BD0120A5
:1034B000FCE700F5F870704708B9034B186800394D
:1034C00018BF012100F08EBA98260020014600683E
:1034D00000B3B0FA80F3C3F11B03182B19DCCA1830
:1034E0001279B2FA82F2C2F11F02032A11DC02EB56
:1034F0008303083351F823305868DA6808339A4256
:1035000000D1704752F8041C5268884238BF084600
:10351000F5E700207047F0B54C68B4FA84F2C2F1C8
:103520001F06C2F11D0324FA03F31C2EA3F10403AA
:103530002CDC07680125C2F11B0205FA06F63E43A2
:10354000871806603E799D4003EB8203354300EB0C
:1035500083033D711D6A01F108027DB9C1E90222B0
:103560001962D0F8B8310133C0F8B831D0F8BC31A5
:10357000083C1C44C0F8BC410020F0BD2B4653F869
:10358000086FC1E902637260AA60EAE74FF0FF309A
:10359000F3E7F0B54C68B4FA84F6C6F11D0324FADB
:1035A00003F31A1F0B46C6F11B0553F8087F9F4211
:1035B0004FEA8503134417D000EB8303CA681D6AE2
:1035C000A94204BFA2F1080119627A601760D0F81D
:1035D000B831013BC0F8B831D0F8BC31C4F10804AF
:1035E0001C44C0F8BC41F0BD0833002140F8231052
:1035F0004119012303FA02F20B7923EA02030B714A
:10360000002BE4D14FF0004323FA06F2036823EACB
:1036100002030360DBE710B5044648B14FF40C72B7
:10362000002112F02EFF04F5DA70FFF775FD10BDD2
:103630004FF0FF30FBE700002DE9F0410C46074654
:1036400020B94FF0FF363046BDE8F0810029F8D0B0
:1036500001F00305521B1B4B22F00305A5F12802C4
:103660009A42EED8D0F8B4014FF0FF31FFF7CEFD0B
:1036700006460028E7D124F00304D7F8B03165608E
:1036800023604FF0090804F10803183DC7F8B04162
:1036900004F11001A060C4F80C8023616561384614
:1036A000FFF739FF06460028CBD1636923F00103F9
:1036B000CA18C950C2F80480D7F8B401FFF736FE23
:1036C000C1E700BFD7FFFF7F2DE9F04188460546DF
:1036D00018B900242046BDE8F0814B1E0B42F8D1FA
:1036E000002A00F09D80082A38BF08221646D5F827
:1036F000B4014FF0FF31FFF789FD0028E9D1B8F19F
:10370000040F38BF4FF00408033626F0030608F113
:1037100004023244B2FA82F3C3F11D0101238B404B
:10372000013A1344B3FA83F7C7F11F02C7F11D0131
:10373000CB401D2AA3F1040300F38880E91B4FF05E
:10374000FF34C97F04FA03F319400FD12868C7F189
:103750002007BC4004405ED0631E23EA0404B4FA90
:1037600084F4C4F120022C1B94F820104B1E23EA91
:103770000103B3FA83F3C3EB8203183355F82340F4
:10378000002C48D021462846FFF703FF08F1FF37F9
:1037900004F108031F44C8F1000807EA0807BB4208
:1037A00004D03B1B182B3DD847F8044C63683A1BE8
:1037B0009B1B9B1A0F2B0AD9B91932446260BC516A
:1037C0004B6023F001032846C950FFF7A4FED5F84B
:1037D000C0316068D5F8C4110133C5F8C031D5E9EE
:1037E0007432013342F10002C5E97432D5E976231F
:1037F000121843F10003C5E97623D5F8C831014416
:103800009942C5F8C41188BFC5F8C811636843F070
:10381000010363603C46D5F8B401FFF787FD59E723
:10382000082664E7636847F8084CA7F10808A8EB86
:1038300004029B1A47F8043C23F00103214648F890
:1038400003806260FFF767FE4446AFE70446E2E7A5
:103850000A460421FFF738BFF8B5054610B94FF006
:10386000FF30F8BD002950D051F8044CE00748BFA4
:10387000A1F10804D5F8B4014FF0FF31FFF7C6FC01
:103880000028ECD16668276826F001066660D5F846
:10389000C031013BC5F8C031D5F8C4319B1BC5F818
:1038A000C431D5E97832013342F10002C5E97832FA
:1038B000D5E97A23921943F10003C5E97A237B689D
:1038C000DA07264408D439462846FFF762FE6268C4
:1038D0007B6813447B603C467368DB070AD431463F
:1038E0002846FFF756FE636876681E44666026F039
:1038F00001062644214634602846FFF70CFED5F821
:10390000B401FFF713FD0020ABE70846A9E72DE956
:10391000F047064614460F4621B9BDE8F047114668
:10392000FFF796BF22B9FFF797FF2046BDE8F08763
:10393000072A57F8043C86BF073424F00701082102
:10394000D8074CBFA7F108089846D8F8045025F0CE
:1039500001054544A5EB070949450CD93046FFF759
:1039600077FF04460028E0D039464A4612F061FD50
:1039700039463046D7E7A9EB010ABAF10F0F01D853
:103980003C46D2E7A1EB0904D6F8B40145F804801F
:103990004FF0FF3105EB0409FFF738FC0028EFD1A9
:1039A000D8F804102144C8F804106B68DA0716D45C
:1039B00053442946C9F804303046FFF7EAFDD9F8E8
:1039C000045025F001054D44C5F8009049463046A5
:1039D000FFF7A1FDD6F8B401FFF7A8FCD0E7C9F8BE
:1039E00004A0F1E72DE9F74FD0F8B06104460D4689
:1039F00011B13B4813F010FBD4F8B4014FF0FF3184
:103A0000FFF704FC002868D135B1364FDFF8048198
:103A1000DFF80491002E3DD1334813F0FDFA33480E
:103A200013F0FAFA324813F0F7FA324813F0F4FAC6
:103A3000D4E96E21304813F0EFFAD4E970212F4811
:103A400013F0EAFA2E4813F0E7FAD4E978232D4868
:103A5000CDE90023D4E97A2313F0DEFAD4E9742304
:103A60002948CDE90023D4E9762313F0D5FAD4F818
:103A7000C811264813F0D0FA2046FFF727FD01466B
:103A8000234813F0C9FAD4F8B40103B0BDE8F04FED
:103A9000FFF74CBC384613F0BFFA404613F0BCFAAF
:103AA000DFF878A0DFF878B006F108056A6812F050
:103AB000010F0CBF4B46534622F0010229465846DF
:103AC00013F0AAFAD5E900230AB1092B03D023F099
:103AD00001031D44EAE736689CE703B0BDE8F08FB8
:103AE000C99E0108F69F0108E39E0108F39E0108A4
:103AF000189F01083D9F0108499F01085C9F01082C
:103B0000709F01087F9F0108969F0108AE9F0108E2
:103B1000D79F010816A00108B69E0108BD9E0108A6
:103B200039A0010803688B4281BF4B0900EB830079
:103B300001F01F01406886BF20FA01F101F0010089
:103B40000020704703688B420CD94A0904300123D6
:103B500001F01F0103FA01F150F8223023EA0103BA
:103B600040F82230704730B550F8043B1F335B09F2
:103B700000229A42054602D14FF0FF3012E050F881
:103B8000041B4C1C01D10132F3E7CB4300245B083A
:103B9000204604F10104FAD1012383400B432B603A
:103BA00000EB421030BD10B504468068FFF7DBFF24
:103BB000031EAABFD4E90020002002FB030010BDB1
:103BC00002464068091A106810B5B1FBF0F400FB1A
:103BD000141070B9926813689C4209D221461046AD
:103BE000FFF7A0FF20B110462146FFF7ABFF0120F1
:103BF00010BD0020FCE72DE9F0410C46FFF759FC11
:103C0000802C054611D800234FEA031855F80820E8
:103C1000A24226D305EB0806FDF712FED6E90132D3
:103C20009A42074603D3FDF70FFE002403E0F46831
:103C300024B9FDF709FE2046BDE8F0812046FFF7D4
:103C4000B2FF044658B155F8083083700023C370A2
:103C5000B3684DF6DE62013302800434B360384647
:103C6000E7E70133042BCFD1DFE7F8B50D46FFF7C7
:103C700020FC35F8042C4DF6DE639A42044620D130
:103C800015F8022C00231F01E1598A4216D8FDF7CE
:103C9000D7FD3C440646291FE068FFF791FF012845
:103CA00004BFA36803F1FF33054608BFA360304695
:103CB00018BF0025FDF7C8FD2846F8BD0133042BC9
:103CC000E1D10025F8E74B1E0344494283428CBFF3
:103CD00001EA03000840704737B5044C246814B16A
:103CE000069D0095A047002003B030BD7C28002031
:103CF0002DE9FF412C4B01932C4D2D4B2D4A2E4984
:103D000000932E482E4B2F4FDFF8BC8013F084F920
:103D10002B68986812F022FA00243E467B68A34282
:103D20000ADC294FDFF8A8800024F368A3421FDCD7
:103D3000002004B0BDE8F081386800EB04124FEABF
:103D4000041C91895368B2F80EE0019392680092C6
:103D500001F00101734658F8212050F80C101B485F
:103D600013F05AF92B68986812F0F8F90134D5E786
:103D7000B06800EB04134FEA041C59689A89029159
:103D800099680191DB89009302F00102214657F8FE
:103D9000223050F80C20404613F03EF92B6898680A
:103DA00012F0DCF90134C0E76AA0010860000020CD
:103DB00076A001084BA00108FDA1010850A0010850
:103DC00047A001084C0400200CA1010884A00108B0
:103DD0007EA0010808B500220121054813F01CF956
:103DE000044B1B68986812F0B9F9002008BD00BFA9
:103DF0009FA00108600000202DE9F84F204B214CC6
:103E0000D3E900AB00250646A4F840509846AB45E0
:103E10000BDCD8E9029A0025AA4503DDB4F840700E
:103E20000F2F19D91748BDE8F88FB4F840700F2F3D
:103E3000EFD82B0130465AF80390FCF78BFB314644
:103E40000246484613F006FB20B97B1C44F8279035
:103E5000A4F840300135DAE72B01304659F80380E9
:103E6000FCF778FB31460246404613F0F3FA20B9DE
:103E70007B1C44F82780A4F840300135CCE700BF14
:103E80004C0400205C0400202DE9F04792B002466B
:103E9000102302A968460093FDF76AFA009C3CB91A
:103EA00021462046FFF724FF204612B0BDE8F087E8
:103EB000314E029FD6E9009A4FF00008D0450EDB44
:103EC000D6E9028900264E4514DB39462B4813F00B
:103ED000A3F82B4B1B68986812F040F949E04D4657
:103EE000384659F8101BFCF72BFB00283AD008F194
:103EF0000108E3E73301384658F8031008EB0615CC
:103F0000FCF71EFB70B30136DDE7032C10D11D4911
:103F10000398FCF715FB024650B90146049813F0CC
:103F200065FBEA89019001A9A86812F082FA20E0F5
:103F3000AF68134E1448DFF85480394613F06CF81C
:103F40003368986812F00AF90024EB89A34210DD67
:103F5000395D404613F060F83368986812F0FEF857
:103F60000134F2E7AB89002BCFD1AB6802A9204620
:103F700098474FF0FF3497E74C040020D5A0010884
:103F800060000020B8A00108BCA00108CFA0010873
:103F9000044A054B9B1A1FBF04491B090A604B606A
:103FA0000020704780990108109A01084C040020F5
:103FB00008B513F091F8034B1B689868BDE80840FA
:103FC00012F0CCB86000002070B50646FCF7C2FACB
:103FD00000240546AC4200DB70BD305DFFF7E8FF12
:103FE0000134F7E738B504460025A54200DB38BDAB
:103FF0000820FFF7DDFF0135F7E72DE9F04190F8E4
:1040000040808044044640460E46FCF7A3FA07462B
:104010003046FCF79FFA05463046FFF7D5FF40468D
:10402000FFF7D2FF3846FFF7DDFF94F840302B440E
:1040300084F840302046FCF78DFA2844002304EB36
:10404000000C2354E9436346ACEB030297420CDCBB
:104050006B42002FACBFDF1B1F462A4631460CEBDC
:104060000700BDE8F04113F007BA5A5C03F8012DD0
:10407000EAE70720FFF79CBF70B5044600F1410551
:1040800000F2411629462046FCF75AFAA8B14035FD
:10409000B542F7D194F84151013504EB8513013352
:1040A00040220021184612F0ECF905F003054022E9
:1040B000214613F0E1F984F8415170BD2DE9F0413A
:1040C000D2B04FF4A172002101A812F0DAF9B04881
:1040D000B04FB14EFFF778FFB048FFF775FF0024EF
:1040E000254612F05FF9431C012B0090F9D9FF28F7
:1040F000F7D015F0FF0F19D015F47F4F02D145EA24
:104100000025EEE745EA004844EA00451B2D30D083
:104110000FD8083D052D16D8052D14D8DFE815F069
:104120001601B100FA0013001300FA00A846054674
:10413000ECE7BD4223D00FD8994B9D4236D003F512
:1041400080339D4272D09DF844303E2B13D869468F
:1041500001A8FFF752FF10E0924B9D42F3D19DF86A
:10416000443043B1013B01208DF84430FFF73AFF62
:1041700000252C46B5E7FFF77CFF002449E001A8A5
:10418000FCF7E8F99DF844308342F4DA01335FFA32
:1041900088F08DF84430FFF70BFFC8F30720FFF7D6
:1041A00007FFC8F30740FFF703FFE1E701A8FCF7AB
:1041B000D1F99DF844308342044606DAC51A4FF01F
:1041C0000008454527DC8DF84440DFF8E0810025F4
:1041D000AC4226DC4022002101A812F052F99DF8E1
:1041E000455100248DF84440033501AB05F003052B
:1041F00003EB851140224131184613F03DF901A827
:104200008DF84551FCF7A6F98DF8440001A8FFF799
:10421000DBFE254665E72020FFF7CAFE08F101080E
:10422000CFE74046FFF7D0FE0135D1E701A8FCF704
:1042300091F99DF844308342044606DAC51A4FF0DE
:104240000008454512DC8DF84440DFF86081002508
:10425000AC4211DC4022002101A812F012F99DF8B5
:10426000455100248DF844400535BEE72020FFF776
:104270009FFE08F10108E4E74046FFF7A5FE01357F
:10428000E6E79DF84430002B3FF475AF01AA1046D5
:10429000002412F80380D454FFF7AEFD01AA9DF864
:1042A000443002F80380B0F84020012A054605D1C9
:1042B000016801A81944FFF7A0FEAAE77FF65BAFEB
:1042C000394812F0A9FE3368986811F047FFB5F835
:1042D0004030A34215DC344812F09EFE33689868E3
:1042E00011F03CFF2D48FFF76FFE01A8FFF76CFEB1
:1042F00001A8FCF72FF99DF84430C01AFFF772FEB1
:104300003BE755F82400FFF75FFE0920FFF750FE5A
:104310000134DCE79DF80430A3B1234812F07CFEA1
:104320003368986811F01AFF01A8FFF7A5FE01A8ED
:10433000FFF7AAFD4022002101A812F0A2F80023F5
:104340008DF844301548FFF73FFE16E79DF84440CE
:10435000002C3FF410AF01AB1C442046FCF7FAF8E8
:1043600005460820FFF724FE2046FFF72DFE2020FB
:10437000FFF71EFE681CFFF735FE2146601E13F096
:1043800061F89DF84430013B8DF84430F5E600BFFC
:1043900014A101081B004300600000202EA10108A9
:1043A0001B0041001B004400F09E01083AA10108D7
:1043B00007B5FFF7EDFD00220A23CDE900230449EC
:1043C00004484FF41063FDF7FDF803B05DF804FBFB
:1043D000BD4000083EA1010808B5FDF7E3FE00203E
:1043E00008BD08B501210020FFF766F8002008BDD0
:1043F00010B5FDF7CBF9FDF7C7F8012810D801205B
:10440000FDF7C8F80446FDF7B3F9074B024621460D
:10441000064812F001FE064B1B68986811F09EFEDC
:104420004FF0FF3010BD00BF83A101084BA1010870
:10443000600000200F492DE9D0438C68D0E9066761
:10444000234623B904B104628860BDE8D083D3E970
:104450000689B04579EB0702F4DA1A6A3AB1D2E973
:104460000689B04579EB070C01DA1346E9E70262E9
:104470001862EAE7000000202DE9F84F374C4FF0B2
:10448000FF354FF0FF366FF00047D4F810B0BBF1A6
:10449000000F02D00020BDE8F88F29462068FDF704
:1044A000F9F86068FDF7C6F8012836D1D4F808A0FD
:1044B000BAF1000F2ED0DAF82030CAF820B0A3608D
:1044C000FDF756F9DAE90623904271EB03038046C3
:1044D00089461CDBDAF80C3013B1DAF81000984783
:1044E000DAF80830DA0709D5CAE9066723F00203CB
:1044F000CAF808305046FFF79DFFD7E7DAF80430D6
:1045000018EB030849F10009CAE90689F2E75046A9
:10451000FFF790FF6068FDF799F8FDF729F98046ED
:1045200060688946FDF786F80128AED1A3687BB1A3
:10453000D3E90623BB4208BFB24209D0904579EBCC
:10454000030108DAA2EB08056068FDF77FF89CE735
:104550004FF0FF35F8E70025F6E700BF0000002028
:104560002DE9F04F3F4D89B06868FDF763F80128E9
:10457000044642D1FDF708F801281ED82046FDF771
:1045800009F80446FDF7F4F8374B0693374B0593CB
:10459000374B0493374B0393374B0293374B0193BD
:1045A000374B00930246374B3748214612F034FD13
:1045B000364B1B68986811F0D1FDAC68DFF8DC90D1
:1045C000334FDFF8DC80E4B9FCF7DEFF012811D8B7
:1045D0000120FCF7DFFF0646FDF7CAF8294B0094DF
:1045E000024631462B4812F017FD284B1B6898688D
:1045F00011F0B4FD6868FDF729F8002009B0BDE8A6
:10460000F08FFCF7C1FF01282AD80120FCF7C2FF78
:104610000646FDF7ADF88346201D90E80350236859
:10462000A269002B08BF4B4611F0020F14BFBA4617
:10463000C24611F0010F14BF39464146CDE90512BB
:10464000CDE9010C0093CDE903EA0E4B12485A461E
:10465000314612F0E1FC0D4B1B68986811F07EFDAD
:10466000246AB0E700000020D1A10108DAA1010806
:10467000DFA10108E5A10108E9A10108F1A10108F4
:10468000F7A101086DA201089EA1010860000020A9
:1046900097A1010835A2010802A2010890A1010812
:1046A0009BA1010873B5164E002201213046FCF78C
:1046B000E5FF354608B3301DFCF7B0FF90B100248C
:1046C0000A23CDE900430F490F484FF40063224607
:1046D000FCF778FFF06060B97068FCF7C3FF4FF03B
:1046E000FF3373602868FCF7EDFF4FF0FF30286060
:1046F00001E03461204602B070BD4FF0FF30FAE7B0
:1047000000000020794400085BA2010838B5074B7F
:104710005C6805460CB9204638BDA1682846FBF701
:104720000FFF0028F7D02468F4E700BFA0040020A2
:10473000F0B5214D85B02868FCF77CFF70B11F4EA5
:10474000AA681F491F4812F067FC3368986811F087
:1047500005FDAB682BB92868FCF778FF002005B091
:10476000F0BD194B0393194B0293194B0193194B4D
:10477000194A1A4900931A481A4B1B4F12F04CFC65
:104780003368986811F0EAFC6C68002CE3D0A36AE7
:104790000393636A0293236A0193E3690093D4E964
:1047A00002126369384612F037FC3368986811F0DA
:1047B000D5FC2468E9E700BFA004002060000020C9
:1047C0001BA301087AA20108D1A20108D7A20108FF
:1047D000DCA20108E5A2010897A20108A0A2010835
:1047E000ABA2010890A20108EEA20108036870B50F
:1047F00005460BB900242DE04368002BFAD02C208D
:10480000FCF76CFF04460028F4D02C22002111F0A4
:1048100038FE2B68A3606B680F4E2361AB68636042
:10482000EB683068E360FCF705FF38B12868FFF7F4
:104830006DFF034630682BB1FCF708FF2046FCF7FC
:1048400059FFD7E7736823607460FCF7FFFEB36815
:104850000133B360204670BDA0040020F8B50A48BB
:10486000FCF7DCFE064630B1084C094D2D1B2D0926
:104870000027BD4201D13046F8BD2046FFF7B6FF04
:1048800010340137F5E700BFA0040020109A01089A
:10489000209A0108F8B50F46044608B9002542E001
:1048A0001820FCF71BFF05460028F7D01F4E1822E2
:1048B000002111F0E6FD3068FCF7BCFEB8B12046DF
:1048C000FFF724FF044678B1C3681A0501D5836950
:1048D00053B96369DB0712D423699B697BB16068B4
:1048E000984740B90123A3623068FCF7AFFE284621
:1048F000FCF700FFD2E7636943F0010363612369BA
:104900001B682BB160683946984708B90223EAE76B
:10491000636A306801336362A3692B60A561C5E9EE
:104920000147FCF793FE2846F8BD00BFA004002015
:1049300037B51C4690B19AB1A3B18468E4070FD48F
:104940004568286950B1446864B106980090686869
:10495000A047002802DD2B6A03442B6203B030BD60
:104960000020FBE72046F9E737B51C4698B1A2B115
:10497000ABB1846814F0030411D04568286950B1C4
:10498000846864B1069800906868A047002802DD3A
:10499000EB690344EB6103B030BD1046FBE72046F2
:1049A000F9E70000F8B5104C0F4601460F481646CF
:1049B00012F032FB2368986811F0D0FB0025B54255
:1049C00008DB0B4812F00CFC23689868BDE8F8403F
:1049D00011F0C4BB785D12F07FFB2368986811F07A
:1049E000BDFB0135EBE700BF600000202DA30108EF
:1049F000F19E01082DE9F041114CDFF850800F467F
:104A000001461048164612F007FB2368986811F01B
:104A1000A5FB0025B54208DB0B4812F0E1FB23683B
:104A2000BDE8F041986811F099BB795D404612F0FD
:104A3000F3FA2368986811F091FB0135EAE700BFAB
:104A4000600000202DA30108F19E0108CFA00108FD
:104A5000032838B50D4617D0FCF796FD012810D86D
:104A60000120FCF797FD0446FCF782FE354B024619
:104A70002146354812F0D0FA344B1B68986811F083
:104A80006DFB4FF0FF3035E08C6831492046FBF775
:104A900057FD08B32F492046FBF752FD58B32E4966
:104AA0002046FBF74DFD40B3FCF76EFD012810D802
:104AB0000120FCF76FFD0446FCF75AFE214B02462D
:104AC0002146264812F0A8FA204B1B68986811F07E
:104AD00045FB6FF001000DE004466D682049284653
:104AE000FBF72EFD58B91F4B93F8A42464F3010281
:104AF00083F8A42438BD0124EFE70224EDE71A4926
:104B00002846FBF71DFD28B9164B93F8A42464F33F
:104B10008302EDE7FCF738FD012810D80120FCF7EF
:104B200039FD0446FCF724FE064B024621460F4899
:104B300012F072FA054B1B68986811F00FFB6FF0CA
:104B40000200D7E70CA501083AA301086000002085
:104B500057A301085CA30108C4A4010862A30108CB
:104B600082A30108AC04002085A3010888A30108E2
:104B70002DE9F047124C07460026A14604F1A40A8D
:104B8000D4F83080B8F1000F11D0A06B78B1E26B8F
:104B9000514611F040FC054648B9142303FB069624
:104BA0000849706B3A46C0472846BDE8F087013691
:104BB000062E04F11404E3D14FF0FF35F4E700BFF3
:104BC000AC0400205005002038B5144C0546A06AFE
:104BD000FCF730FDF0B12169C9B104F1A40012F075
:104BE00072FCA0B1606940B1A269954228BF154628
:104BF0002A4604F1A40111F01CFC206AE561FCF7CF
:104C000055FD0025A06AFCF721FD284638BD4FF070
:104C1000FF35F7E74FF0FF35F7E700BFAC040020A2
:104C200073B5124E4FF0FF330093024605464FF422
:104C3000806370680021FFF77BFE041E0ADD96F892
:104C4000A43403F00303012B07D109482246294667
:104C5000FFF7A8FE204602B070BD022BFAD104482F
:104C600022462946FFF7C6FEF4E700BFAC04002049
:104C7000A8A3010873B52B4C02212068FFF70AFE98
:104C800026466060D0B9FCF77FFC012813D80120CC
:104C9000FCF780FC0546FCF76BFD234B21680246C0
:104CA000CDE900312148294612F0B6F9204B1B68A6
:104CB000986811F053FA002002B070BD002406F18C
:104CC000A405D6F8A834012B19D12CB94FF4806271
:104CD0002146284611F0D5FB2819FFF7A1FF04440F
:104CE000002C08DD2046FFF743FF18B12046FFF7F0
:104CF0006BFF00B900247368002BE2D1DBE74FF4AF
:104D000080620021284611F0BCFB2846FFF788FF8F
:104D1000041EF0DDFFF72CFF0028ECD02046FFF743
:104D200053FFE8E7AC040020EAA40108AEA30108A1
:104D30006000002073B5124E00920B4602460446F6
:104D40000D4670680021FFF70FFE002814DD96F86D
:104D5000A434C3F38103012B06D10A482A46214615
:104D6000FFF720FE002009E0022BFBD105482A4670
:104D70002146FFF73FFEF5E74FF0FF3002B070BD70
:104D8000AC040020CEA30108044A92F8A43423F016
:104D90000F0382F8A4340020704700BFAC04002049
:104DA0002DE9F0470F46DDE908A6904699460546ED
:104DB00020B94FF0FF352846BDE8F087002A39D0EA
:104DC0001F4C3146606AFCF765FC0028F1D0A06AF0
:104DD000FCF730FC60B1206AC4F818A00021C4E9D7
:104DE0000257C4E90489FCF755FCA06AFCF72EFCC5
:104DF000324639462846FFF79DFF98B14FF0FF3500
:104E0000A06AFCF717FC48B10023A06AC4E902338A
:104E1000C4E90433C4E90633FCF718FC606AFCF704
:104E200045FCC8E7206A3146FCF734FC0028E5D091
:104E3000E569E5E73246BDE8F047FFF77BBF00BF15
:104E4000AC040020F0B5831E012BA3B00C4617D98B
:104E5000FCF79AFB012810D80120FCF79BFB0446C5
:104E6000FCF786FC2D4B024621462D4812F0D4F863
:104E70002C4B1B68986811F071F94FF0FF3439E042
:104E800003284FF0400502AE08BF8F682A464FF056
:104E90000001304618BF002711F0F3FA6368224A78
:104EA000294612A812F0FCF912A8FBF753FB4FF4A5
:104EB0007A73CDE90053014633463A4612A8FFF70C
:104EC0006FFF0446C8B9FCF75FFB012812D8012028
:104ED000FCF760FB0546FCF74BFCCDE900460246BB
:104EE0000E4B1248294612F097F80E4B1B68986833
:104EF00011F034F9204623B0F0BDFCF745FB012842
:104F0000F8D80120FCF746FB0546FCF731FC034BC3
:104F100002462946064812F07FF8E6E703A5010895
:104F20003AA301086000002000A60108D4A30108EC
:104F3000FCA30108F0B5BBB1B1B10D4E002437465A
:104F4000356B65B9B56B55B9142606FB0474C4E915
:104F50000E122363059BE06263632846F0BD0134B3
:104F6000062C06F11406EBD14FF0FF30F6E700BF38
:104F7000AC04002073B5524E40F2AC4200213046E2
:104F800011F07FFA30464F4B40F8243B0122114686
:104F9000FCF774FB3546C0B9FCF7F6FA012811D8C6
:104FA0000120FCF7F7FA0446FCF7E2FB464B0093BE
:104FB00002462146454812F02FF8454B1B68986879
:104FC00011F0CCF84FF0FF3077E00022012106F11C
:104FD0002000FCF753FBE0B9FCF7D6FA012811D802
:104FE0000120FCF7D7FA0446FCF7C2FB364B0093CE
:104FF00002462146354812F00FF8354B1B68986879
:1050000011F0ACF83348FCF75DFB4FF0FF306862FD
:1050100053E006F12800FCF701FBE0B9FCF7B4FA15
:10502000012811D80120FCF7B5FA0446FCF7A0FBD3
:10503000254B009302462146274811F0EDFF244BF3
:105040001B68986811F08AF82448FCF73BFB4FF086
:10505000FF332B62D6E700240A23CDE90043204921
:1050600020484FF400632246FCF7ACFAE0B9FCF7A5
:105070008BFA012811D80120FCF78CFA0446FCF7C2
:1050800077FB114B009302462146174811F0C4FFED
:105090000F4B1B68986811F061F81448FCF7E2FAAE
:1050A0004FF0FF33AB62CFE796F8A43423F00F0341
:1050B00043F0050386F8A434204602B070BD00BF5B
:1050C000AC04002029A40108FBA401082FA40108B6
:1050D00060000020D004002051A40108CC0400206E
:1050E000754C000873A401087AA40108D4040020B8
:1050F00030B50D4B0D4D0E4C20B9C3E900540D4A8F
:105100009A600FE001684268002908BF2946002A1A
:1051100008BF22460020A94219605A60986001D158
:10512000A242ECD030BD00BF14000020351D0008A5
:10513000311D00083D1D000837B50B4D04461022F7
:105140000021284611F09DF9230E0193C4F3074373
:1051500000930649C4F30723E2B2284612F0D4F8BC
:10516000284603B030BD00BF580900201AA5010829
:1051700070B50C20FCF7B2FA0446F8B1114DA868DE
:10518000FCF758FAD0B16968EB680026B1420BDD34
:105190001A460433106898B92B689B68C4E9003636
:1051A0004FF0FF33A3601460A868FCF74FFA6B68F8
:1051B000B34203D12046FCF79DFA0024204670BD7F
:1051C0000136E3E768090020002807DB044B5A6832
:1051D000824203DDDB6853F82000704700207047EF
:1051E0006809002070B5041E15DB0B4D6B68A342E7
:1051F00011DDA868FCF71EFA68B1EB68002253F8CD
:10520000246043F82420A868FCF720FA3046BDE863
:105210007040FCF76FBA70BD6809002037B51D4DAE
:10522000EC6824B14FF0FF34204603B030BD05F1E7
:105230000800FCF7F3F90028F4D02820FCF74EFA18
:10524000E86030B9A8684FF0FF34FCF70BFAAC60A7
:10525000EAE72146282211F014F90A23C5E90043A0
:1052600000F050FC0446FCF78FF90128DCD801203F
:10527000FCF790F90546FCF77BFA074B00940246D1
:105280002946064811F0C8FE054B1B68986810F0C7
:1052900065FFC9E7680900205DA5010826A501088A
:1052A00060000020044A136813B910601846704764
:1052B0004FF0FF30704700BF6809002037B5054642
:1052C000CDE90021FFF754FF044698B10B4B1B6852
:1052D0006BB19B685BB11B684BB1DDE900212846CF
:1052E0009847431C03D0A060606803B030BD60687D
:1052F000FFF778FF4FF0FF30F7E700BF68090020A5
:1053000007B50192FFF760FF48B103683BB15B68E6
:105310002BB1019A806803B05DF804EB18474FF099
:10532000FF3003B05DF804FB07B50192FFF74CFFB7
:1053300048B103683BB11B692BB1019A806803B087
:105340005DF804EB18474FF0FF3003B05DF804FB45
:1053500013B5CDE90032FFF737FF58B104684CB1FF
:10536000E4693CB1DDE900328068A44602B0BDE8E2
:10537000104060474FF0FF3002B010BD13B5CDE9CB
:105380000032FFF721FF58B104684CB1E46A3CB128
:10539000DDE900328068A44602B0BDE810406047F5
:1053A0004FF0FF3002B010BD13B5CDE90032FFF76A
:1053B0000BFF58B104684CB1646A3CB1DDE90032BE
:1053C0008068A44602B0BDE8104060474FF0FF304F
:1053D00002B010BD38B5FFF7F7FE054670B103689F
:1053E0004BB19B6B3BB18068984704466868FFF7F8
:1053F000F9FE204638BD4FF0FF34F7E74FF0FF3499
:10540000F7E70000044B1B6823B19B6813B1DB6B0B
:1054100003B1184700207047680900204FF0FF30A3
:1054200070474FF0FF30704704280FD8094A02EB4D
:105430008000C16851B11A689B684FF47A7093FB81
:10544000F0F300FB02334B61002070474FF0FF3058
:10545000704700BF780900204FF0FF3070470020F0
:1054600070471FB504460391FBF774F800234FF40F
:10547000FA62CDE900320146039A2046FFF790FC1C
:10548000C043C00F04B010BD2DE9F0410428A2B004
:1054900005463ED8204C861C04EB8603D3F80480D6
:1054A000B8F1000F35D003461C4A402102A811F084
:1054B000F7FE2068FCF7BEF8C8B1194902A8FFF74B
:1054C000D0FF88B10420FCF765F80746FCF750F9D7
:1054D000144B009502463946134811F09DFD134BBD
:1054E0001B68986810F03AFE2068FCF7AFF8206857
:1054F000FCF7A0F830B104EB860600232068736047
:10550000FCF7A4F84046FCF7F5F8002022B0BDE80F
:10551000F0814FF0FF30F9E7780900206DA5010810
:105520006CA601088CA801087EA501086000002077
:1055300004282DE9F74F0E46904644D8244F07EB38
:105540008000C568002D3ED000293CD0002A3AD00A
:10555000D5F814A04FF0FF3405F118094FF0000BF7
:105560007868FCF767F8D0B14846FBF7FEFF0028E3
:1055700010DDAA68022A22D10DF106014846ADF8D5
:1055800006B0FBF7AEFFBDF8062031464846FBF7F4
:10559000A8FF04467868FCF759F8002C09DC2B6951
:1055A000A3B10120FCF72EF80AF1FF33BAF1000F86
:1055B00003D1204603B0BDE8F08F9A46D0E7012A18
:1055C000E8D14246E1E74FF0FF34F2E71C46F0E74E
:1055D00078090020FFF7ACBFF0B50428A3B004465B
:1055E00004D94FF0FF34204623B0F0BD1A4E06EB2D
:1055F0008003DF68002FF4D00029F2D04B88486880
:105600001D0245EA1325FFF797FDBB68022BADB2DB
:1056100018D1CDE90005114A2346802102A811F0D6
:105620003FFE3068FCF706F80028DAD00C4902A8E3
:10563000FFF717FF68B101233B6100243068FCF7D6
:1056400005F8D0E7012BCCD1CDE90005054A23466A
:10565000E3E74FF0FF34F1E7780900209FA5010848
:105660006CA60108BEA501082DE9F341804640F66D
:1056700028000F461646FCF731F80546A8B100246D
:10568000234600F585614FF4806200941830FBF7E3
:10569000CEFEEE60124EC5E901873068FBF7CAFF07
:1056A000334628B92846FCF725F84FF0FF340DE0C3
:1056B00006F10C0252F8041B61B903EB84022C6062
:1056C000D5601868FBF7C2FF631CEBD0204602B020
:1056D000BDE8F0810134052CECD14FF0FF34F0E748
:1056E000780900202DE9F04F87B0DFF89481DFF8CA
:1056F000A0910291154616460C46029B03EB050A43
:1057000054452BD2D8F80400FBF794FFD8B1052EEE
:1057100004EB06073CD80420FBF73CFF8346FCF76C
:1057200027F8CDE9006402464B465248594611F02D
:1057300073FC514B1B68986810F010FDD8F80400FA
:10574000FBF784FF3C46AAEB0406052E06D94B491D
:105750000622204610F05FFE0028CED0002E13DD7A
:105760003E21204611F061FE20B1454A137A43F0F4
:10577000020313724349204611F0A5FE20B1404AAE
:10578000137A43F001031372284607B0BDE8F08F87
:105790002C21204611F049FE60B90420FBF7FAFEE7
:1057A0000446FBF7E5FF024637484B46214611F019
:1057B00033FCBEE7431C00224FF00A0C184613F8D6
:1057C000011B3039CCB2092C17D9042AB6DC08EBFE
:1057D0008202D2F80CB0BBF1000FAFD02C2111F037
:1057E00024FE68B90420FBF7D5FE0446FBF7C0FF92
:1057F0004B46024621462548D9E70CFB0212DDE75D
:105800000022441CADF81620134614F8011BA1F128
:10581000300009281FD90AB1ADF816300BF118066F
:10582000BDF8162003923046FBF79FFE039AC0F5A1
:105830008060824282DCDBF80820022A13D10DF15D
:1058400016013046FBF7FEFDBDF816202146304616
:10585000FBF7F8FD09E003EB830301EB4303303B67
:105860009BB20122D1E7012AEED0BDF81670274481
:1058700064E700BFDDA501086000002060A6010804
:105880007809002067A6010805A6010832A60108CC
:105890006BA801082DE9F0430428A3B007460C4685
:1058A000164600F28780454D05EB8003D3F80C9037
:1058B000B9F1000F7ED000297CD0002A7ADD09F1F1
:1058C00028084FF480620021404610F0DAFD286875
:1058D000FBF7B0FE002859D03B464021384A0096DD
:1058E00002A811F0DDFC2B7A36496FF3410302A8C0
:1058F0002B72FFF7B6FD10B92B7A990743D52B7A97
:105900006FF300032B724FF4FA624FF48063CDE91A
:10591000003220462C4A43463146FFF741FA041E26
:105920000DDD2A49404611F0CEFD014628B108EBB5
:105930000402121A0020FFF7D5FE344604E02B7A49
:1059400013F0010F18BF34462868FBF77FFE002CC8
:1059500015DC0024C9F810400420FBF71BFE0546A7
:10596000FBF706FF1A4B0246CDE900761948294697
:1059700011F052FB184B1B68986810F0EFFB2046A3
:1059800023B0BDE8F0834FF0FF34DDE70420FBF7E0
:1059900001FE0446FBF7ECFECDE9007602460C4B17
:1059A0000E48214611F038FB0B4B1B68986810F02D
:1059B000D5FBCEE74FF0FF34E1E700BF78090020C8
:1059C0006FA6010838A1010867A6010860A60108B2
:1059D00080A80108B0A601086000002082A6010886
:1059E000F7B504280D4616460446DDE9081215D819
:1059F0000C4F07EB8007FF6887B17DB1002E0DDDEE
:105A00003F691FB90193FFF7E7FD019B3246294625
:105A1000204603B0BDE8F040FFF73CBF4FF0FF3039
:105A200003B0F0BD78090020002070474FF0FF3030
:105A300070470000F0B58024C7B02246054600211B
:105A400026A810F01EFD2146264A2B4606A811F076
:105A500027FC06A8FAF77EFD4FF4FA63CDE9004370
:105A60000146214A214C26AB06A8FFF799F90028E8
:105A700005AF04AE16DB3A2126A811F0D6FC14229D
:105A800005460021204610F0FCFCCDE900671849CE
:105A900003AB02AA681C11F057FC00280EDC0020A2
:105AA00047B0F0BD14220021204610F0EAFCCDE9F9
:105AB00000670F4903AB02AA2846ECE70222042341
:105AC000C4E902230B4B029A1A70039A5A70049A83
:105AD0009A70059ADA70084A2261136000235360B5
:105AE0002046DDE7F2A6010806A701089809002074
:105AF0001AA50108AC090020B00900204FF0FF30C2
:105B0000704700002DE9F0417148714CA4B0FBF7DB
:105B100085FDB0B90420FBF73DFD0546FBF728FEE7
:105B20006C4B024629466C4811F076FA6B4B1B68A9
:105B3000986810F013FB4FF0FF30206024B0BDE8F0
:105B4000F081201DFBF76AFDB8B90420FBF722FDA8
:105B50000546FBF70DFE5F4B024629465E4811F0F5
:105B60005BFA5E4B1B68986810F0F8FA4FF0FF3351
:105B700020686360FBF776FDDDE7FBF705FD012894
:105B8000574F19D80120FBF705FD0546FBF7F0FD3F
:105B90004FF480634FF4FA61CDE90231514B009329
:105BA00002464C4B50480197294611F035FA4B4BB1
:105BB0001B68986810F0D2FA00264C4B4C494D48AF
:105BC00000960622FFF7B6F94B4DB046FBF7DCFC1A
:105BD000012810D80120FBF7DDFC0646FBF7C8FDC5
:105BE0003C4B02463146454811F016FA3B4B1B68C8
:105BF000986810F0B3FA4FF47A70FBF703FD404950
:105C00004048FFF72EFC29463F48FFF72AFC402278
:105C1000002104A810F035FC00233C4A402104A8D0
:105C200011F03EFB294604A8FFF71BFC402200218F
:105C300004A810F026FC0123354A402104A811F0E5
:105C40002FFB294604A8FFF70CFC4022002104A8E2
:105C500010F017FC2F4A0123402104A811F020FB6B
:105C6000294604A8FFF7FDFB1E4B2B4A0097802115
:105C700004A811F015FB04A8FAF76CFC42F21073AB
:105C8000CDE90083014600232A4604A8FFF788F8DF
:105C900000289BDBFFF778F82048FFF703FB00287C
:105CA0003FF44CAF0420FBF775FC0546FBF760FDA5
:105CB00029460246074B1A4811F0AEF9074B1B68FC
:105CC000986810F04BFA6068FBF7CCFC4EE700BF19
:105CD0007809002099A8010811A701086000002098
:105CE0008FA701089AA701083BA70108E5560008FD
:105CF00060A601089CA701086CA60108A7A70108D7
:105D0000CAA70108D0A70108D9A70108E0A7010880
:105D1000F1A7010804A8010813A80108B0A8010808
:105D20002CA8010830B129B1044B1B6813B11B68C2
:105D300003B118476FF00800704700BFB809002092
:105D400028B1044B1B6813B15B6803B118476FF0AF
:105D500008007047B809002010B440B1064C246810
:105D60002CB1A4681CB1A4465DF8044B60476FF0E9
:105D700008005DF8044B7047B809002028B1044BB7
:105D80001B6813B1DB6803B118476FF00800704758
:105D9000B809002028B1044B1B6813B11B6903B17B
:105DA00018476FF008007047B809002028B1044B6D
:105DB0001B6813B15B6903B118476FF008007047A7
:105DC000B809002030B129B1044B1B6813B19B699D
:105DD00003B118476FF00800704700BFB8090020F2
:105DE000F0B570B1084F3E685EB904460FCC3D1D5A
:105DF0000FC594E8070085E80700103D3D60304678
:105E0000F0BD6FF00800FBE7B809002037B50AF0D5
:105E10005DFB0446FBF7B8FB012811D80120FBF716
:105E2000B9FB0546FBF7A4FC074B00940246294644
:105E3000064811F0F1F8064B1B68986810F08EF9CF
:105E4000204603B030BD00BF39A9010800A90108F0
:105E50006000002001440023884201D118467047A9
